{
  "contractName": "Uniswap",
  "abi": [
    {
      "anonymous": false,
      "inputs": [
        {
          "indexed": false,
          "internalType": "address",
          "name": "token0Address",
          "type": "address"
        },
        {
          "indexed": false,
          "internalType": "address",
          "name": "token1Address",
          "type": "address"
        },
        {
          "indexed": false,
          "internalType": "uint256",
          "name": "token0Qty",
          "type": "uint256"
        },
        {
          "indexed": false,
          "internalType": "uint256",
          "name": "token1Qty",
          "type": "uint256"
        },
        {
          "indexed": false,
          "internalType": "uint256",
          "name": "LPtokenAmount",
          "type": "uint256"
        }
      ],
      "name": "AddLiquidity",
      "type": "event"
    },
    {
      "anonymous": false,
      "inputs": [
        {
          "indexed": false,
          "internalType": "uint256",
          "name": "ret",
          "type": "uint256"
        },
        {
          "indexed": false,
          "internalType": "uint256",
          "name": "targetTokenQty",
          "type": "uint256"
        }
      ],
      "name": "GetSwipeEstimateQty",
      "type": "event"
    },
    {
      "anonymous": false,
      "inputs": [
        {
          "indexed": false,
          "internalType": "uint256",
          "name": "estimateQty",
          "type": "uint256"
        },
        {
          "indexed": false,
          "internalType": "address",
          "name": "token0Address",
          "type": "address"
        },
        {
          "indexed": false,
          "internalType": "address",
          "name": "token1Address",
          "type": "address"
        },
        {
          "indexed": false,
          "internalType": "uint256",
          "name": "quantity",
          "type": "uint256"
        }
      ],
      "name": "Swape",
      "type": "event"
    },
    {
      "inputs": [],
      "name": "BNBPrice",
      "outputs": [
        {
          "internalType": "uint256",
          "name": "",
          "type": "uint256"
        }
      ],
      "stateMutability": "view",
      "type": "function",
      "constant": true
    },
    {
      "inputs": [],
      "name": "LPtokenAddr",
      "outputs": [
        {
          "internalType": "address",
          "name": "",
          "type": "address"
        }
      ],
      "stateMutability": "view",
      "type": "function",
      "constant": true
    },
    {
      "inputs": [
        {
          "internalType": "uint256",
          "name": "",
          "type": "uint256"
        }
      ],
      "name": "liquidities",
      "outputs": [
        {
          "internalType": "address",
          "name": "userAddress",
          "type": "address"
        },
        {
          "internalType": "address",
          "name": "token0Address",
          "type": "address"
        },
        {
          "internalType": "address",
          "name": "token1Address",
          "type": "address"
        },
        {
          "internalType": "uint256",
          "name": "token0Qty",
          "type": "uint256"
        },
        {
          "internalType": "uint256",
          "name": "token1Qty",
          "type": "uint256"
        },
        {
          "internalType": "uint256",
          "name": "LPtokenAmount",
          "type": "uint256"
        }
      ],
      "stateMutability": "view",
      "type": "function",
      "constant": true
    },
    {
      "inputs": [
        {
          "internalType": "address",
          "name": "",
          "type": "address"
        },
        {
          "internalType": "address",
          "name": "",
          "type": "address"
        }
      ],
      "name": "pools",
      "outputs": [
        {
          "internalType": "address",
          "name": "token0Address",
          "type": "address"
        },
        {
          "internalType": "address",
          "name": "token1Address",
          "type": "address"
        },
        {
          "internalType": "uint160",
          "name": "rateLiquidity",
          "type": "uint160"
        }
      ],
      "stateMutability": "view",
      "type": "function",
      "constant": true
    },
    {
      "inputs": [],
      "name": "token0Price",
      "outputs": [
        {
          "internalType": "uint256",
          "name": "",
          "type": "uint256"
        }
      ],
      "stateMutability": "view",
      "type": "function",
      "constant": true
    },
    {
      "inputs": [],
      "name": "token1Price",
      "outputs": [
        {
          "internalType": "uint256",
          "name": "",
          "type": "uint256"
        }
      ],
      "stateMutability": "view",
      "type": "function",
      "constant": true
    },
    {
      "inputs": [
        {
          "internalType": "address",
          "name": "_LPtokenAddr",
          "type": "address"
        }
      ],
      "name": "setLPTokenContract",
      "outputs": [],
      "stateMutability": "nonpayable",
      "type": "function"
    },
    {
      "inputs": [
        {
          "internalType": "address",
          "name": "token0Address",
          "type": "address"
        },
        {
          "internalType": "address",
          "name": "token1Address",
          "type": "address"
        },
        {
          "internalType": "uint160",
          "name": "rateLiquidity",
          "type": "uint160"
        }
      ],
      "name": "createPool",
      "outputs": [],
      "stateMutability": "nonpayable",
      "type": "function"
    },
    {
      "inputs": [
        {
          "internalType": "address",
          "name": "token0Address",
          "type": "address"
        },
        {
          "internalType": "address",
          "name": "token1Address",
          "type": "address"
        }
      ],
      "name": "getTokenRatio",
      "outputs": [
        {
          "internalType": "uint160",
          "name": "rateLiquidity",
          "type": "uint160"
        }
      ],
      "stateMutability": "view",
      "type": "function",
      "constant": true
    },
    {
      "inputs": [
        {
          "internalType": "address",
          "name": "token0Address",
          "type": "address"
        },
        {
          "internalType": "address",
          "name": "token1Address",
          "type": "address"
        },
        {
          "internalType": "uint256",
          "name": "token0Qty",
          "type": "uint256"
        },
        {
          "internalType": "uint256",
          "name": "token1Qty",
          "type": "uint256"
        }
      ],
      "name": "addLiquidity",
      "outputs": [],
      "stateMutability": "payable",
      "type": "function",
      "payable": true
    },
    {
      "inputs": [
        {
          "internalType": "uint256",
          "name": "_postionId",
          "type": "uint256"
        }
      ],
      "name": "getPostionInfo",
      "outputs": [
        {
          "internalType": "address",
          "name": "userAddress",
          "type": "address"
        },
        {
          "internalType": "address",
          "name": "token0Address",
          "type": "address"
        },
        {
          "internalType": "address",
          "name": "token1Address",
          "type": "address"
        },
        {
          "internalType": "uint256",
          "name": "token0Qty",
          "type": "uint256"
        },
        {
          "internalType": "uint256",
          "name": "token1Qty",
          "type": "uint256"
        },
        {
          "internalType": "uint256",
          "name": "LPtokenAmount",
          "type": "uint256"
        }
      ],
      "stateMutability": "view",
      "type": "function",
      "constant": true
    },
    {
      "inputs": [
        {
          "internalType": "address",
          "name": "token0Address",
          "type": "address"
        },
        {
          "internalType": "address",
          "name": "token1Address",
          "type": "address"
        },
        {
          "internalType": "uint256",
          "name": "quantity",
          "type": "uint256"
        }
      ],
      "name": "swape",
      "outputs": [],
      "stateMutability": "payable",
      "type": "function",
      "payable": true
    },
    {
      "inputs": [
        {
          "internalType": "address",
          "name": "token0Address",
          "type": "address"
        },
        {
          "internalType": "address",
          "name": "token1Address",
          "type": "address"
        },
        {
          "internalType": "uint256",
          "name": "quantity",
          "type": "uint256"
        }
      ],
      "name": "getSwipeEstimateQty",
      "outputs": [
        {
          "internalType": "uint256",
          "name": "ret",
          "type": "uint256"
        }
      ],
      "stateMutability": "nonpayable",
      "type": "function"
    }
  ],
  "bytecode": "0x6080604052336000806101000a81548173ffffffffffffffffffffffffffffffffffffffff021916908373ffffffffffffffffffffffffffffffffffffffff160217905550631dc7e6c0600255630165aa80600355630b2d540060045534801561006857600080fd5b50611a25806100786000396000f3fe6080604052600436106100c25760003560e01c80634a391b101161007f5780639b1b4d49116100595780639b1b4d49146102ac578063bb00b3b5146102d7578063cf6c62ea14610302578063e443089b1461031e576100c2565b80634a391b10146101ee5780638dde5bdc1461022b578063901754d71461026d576100c2565b80630713051d146100c7578063170cf97e14610109578063267b1c411461013257806335d9c6751461015d5780633750440d1461019a57806349c5f009146101c5575b600080fd5b3480156100d357600080fd5b506100ee60048036038101906100e99190611507565b61033a565b604051610100969594939291906115e1565b60405180910390f35b34801561011557600080fd5b50610130600480360381019061012b9190611378565b6103e6565b005b34801561013e57600080fd5b50610147610482565b604051610154919061173e565b60405180910390f35b34801561016957600080fd5b50610184600480360381019061017f91906113a1565b610488565b6040516101919190611723565b60405180910390f35b3480156101a657600080fd5b506101af610532565b6040516101bc919061173e565b60405180910390f35b3480156101d157600080fd5b506101ec60048036038101906101e791906113dd565b610538565b005b3480156101fa57600080fd5b506102156004803603810190610210919061142c565b6106f4565b604051610222919061173e565b60405180910390f35b34801561023757600080fd5b50610252600480360381019061024d9190611507565b6108e2565b604051610264969594939291906115e1565b60405180910390f35b34801561027957600080fd5b50610294600480360381019061028f91906113a1565b6109cb565b6040516102a393929190611642565b60405180910390f35b3480156102b857600080fd5b506102c1610a62565b6040516102ce919061173e565b60405180910390f35b3480156102e357600080fd5b506102ec610a68565b6040516102f991906115c6565b60405180910390f35b61031c6004803603810190610317919061147b565b610a8e565b005b6103386004803603810190610333919061142c565b610f9f565b005b6005818154811061034a57600080fd5b90600052602060002090600602016000915090508060000160009054906101000a900473ffffffffffffffffffffffffffffffffffffffff16908060010160009054906101000a900473ffffffffffffffffffffffffffffffffffffffff16908060020160009054906101000a900473ffffffffffffffffffffffffffffffffffffffff16908060030154908060040154908060050154905086565b60008054906101000a900473ffffffffffffffffffffffffffffffffffffffff1673ffffffffffffffffffffffffffffffffffffffff163373ffffffffffffffffffffffffffffffffffffffff161461043e57600080fd5b80600160006101000a81548173ffffffffffffffffffffffffffffffffffffffff021916908373ffffffffffffffffffffffffffffffffffffffff16021790555050565b60025481565b6000600660008473ffffffffffffffffffffffffffffffffffffffff1673ffffffffffffffffffffffffffffffffffffffff16815260200190815260200160002060008373ffffffffffffffffffffffffffffffffffffffff1673ffffffffffffffffffffffffffffffffffffffff16815260200190815260200160002060020160009054906101000a900473ffffffffffffffffffffffffffffffffffffffff16905092915050565b60045481565b600060405180606001604052808573ffffffffffffffffffffffffffffffffffffffff1681526020018473ffffffffffffffffffffffffffffffffffffffff1681526020018373ffffffffffffffffffffffffffffffffffffffff16815250905080600660008673ffffffffffffffffffffffffffffffffffffffff1673ffffffffffffffffffffffffffffffffffffffff16815260200190815260200160002060008573ffffffffffffffffffffffffffffffffffffffff1673ffffffffffffffffffffffffffffffffffffffff16815260200190815260200160002060008201518160000160006101000a81548173ffffffffffffffffffffffffffffffffffffffff021916908373ffffffffffffffffffffffffffffffffffffffff16021790555060208201518160010160006101000a81548173ffffffffffffffffffffffffffffffffffffffff021916908373ffffffffffffffffffffffffffffffffffffffff16021790555060408201518160020160006101000a81548173ffffffffffffffffffffffffffffffffffffffff021916908373ffffffffffffffffffffffffffffffffffffffff16021790555090505050505050565b6000808473ffffffffffffffffffffffffffffffffffffffff166370a0823160008054906101000a900473ffffffffffffffffffffffffffffffffffffffff166040518263ffffffff1660e01b815260040161075091906115c6565b60206040518083038186803b15801561076857600080fd5b505afa15801561077c573d6000803e3d6000fd5b505050506040513d601f19601f820116820180604052508101906107a09190611530565b905060008473ffffffffffffffffffffffffffffffffffffffff166370a0823160008054906101000a900473ffffffffffffffffffffffffffffffffffffffff166040518263ffffffff1660e01b81526004016107fd91906115c6565b60206040518083038186803b15801561081557600080fd5b505afa158015610829573d6000803e3d6000fd5b505050506040513d601f19601f8201168201806040525081019061084d9190611530565b9050600061088861086786856111f690919063ffffffff16565b61087a848661124390919063ffffffff16565b6112ac90919063ffffffff16565b905061089d81836112c290919063ffffffff16565b93507fe8e007f461daba0f9fc75e17562d44682696cb9b59a3e1ee5c152ff612ceb00084826040516108d092919061179e565b60405180910390a15050509392505050565b600080600080600080600060058881548110610927577f4e487b7100000000000000000000000000000000000000000000000000000000600052603260045260246000fd5b906000526020600020906006020190508060000160009054906101000a900473ffffffffffffffffffffffffffffffffffffffff1696508060010160009054906101000a900473ffffffffffffffffffffffffffffffffffffffff1695508060020160009054906101000a900473ffffffffffffffffffffffffffffffffffffffff1694508060030154935080600401549250806005015491505091939550919395565b6006602052816000526040600020602052806000526040600020600091509150508060000160009054906101000a900473ffffffffffffffffffffffffffffffffffffffff16908060010160009054906101000a900473ffffffffffffffffffffffffffffffffffffffff16908060020160009054906101000a900473ffffffffffffffffffffffffffffffffffffffff16905083565b60035481565b600160009054906101000a900473ffffffffffffffffffffffffffffffffffffffff1681565b6000610a9a8585610488565b9050610ad86064610aca8373ffffffffffffffffffffffffffffffffffffffff168661124390919063ffffffff16565b6112ac90919063ffffffff16565b8214610b19576040517f08c379a0000000000000000000000000000000000000000000000000000000008152600401610b1090611703565b60405180910390fd5b8473ffffffffffffffffffffffffffffffffffffffff166323b872dd3360008054906101000a900473ffffffffffffffffffffffffffffffffffffffff16866040518463ffffffff1660e01b8152600401610b7693929190611679565b602060405180830381600087803b158015610b9057600080fd5b505af1158015610ba4573d6000803e3d6000fd5b505050506040513d601f19601f82011682018060405250810190610bc891906114de565b610bd157600080fd5b8373ffffffffffffffffffffffffffffffffffffffff166323b872dd3360008054906101000a900473ffffffffffffffffffffffffffffffffffffffff16856040518463ffffffff1660e01b8152600401610c2e93929190611679565b602060405180830381600087803b158015610c4857600080fd5b505af1158015610c5c573d6000803e3d6000fd5b505050506040513d601f19601f82011682018060405250810190610c8091906114de565b610c8957600080fd5b6000610ce76103e8610cd9600254610cac8760045461124390919063ffffffff16565b610cc18960035461124390919063ffffffff16565b610ccb91906117d8565b6112ac90919063ffffffff16565b6112c290919063ffffffff16565b9050600160009054906101000a900473ffffffffffffffffffffffffffffffffffffffff1673ffffffffffffffffffffffffffffffffffffffff166323b872dd60008054906101000a900473ffffffffffffffffffffffffffffffffffffffff1633846040518463ffffffff1660e01b8152600401610d6893929190611679565b602060405180830381600087803b158015610d8257600080fd5b505af1158015610d96573d6000803e3d6000fd5b505050506040513d601f19601f82011682018060405250810190610dba91906114de565b610dc357600080fd5b60006040518060c001604052803373ffffffffffffffffffffffffffffffffffffffff1681526020018873ffffffffffffffffffffffffffffffffffffffff1681526020018773ffffffffffffffffffffffffffffffffffffffff168152602001868152602001858152602001838152509050600581908060018154018082558091505060019003906000526020600020906006020160009091909190915060008201518160000160006101000a81548173ffffffffffffffffffffffffffffffffffffffff021916908373ffffffffffffffffffffffffffffffffffffffff16021790555060208201518160010160006101000a81548173ffffffffffffffffffffffffffffffffffffffff021916908373ffffffffffffffffffffffffffffffffffffffff16021790555060408201518160020160006101000a81548173ffffffffffffffffffffffffffffffffffffffff021916908373ffffffffffffffffffffffffffffffffffffffff160217905550606082015181600301556080820151816004015560a0820151816005015550507f2f3289d16dbc3007471d28c4936df3a95222bc938112449400d049637e3309ce8787878786604051610f8e9594939291906116b0565b60405180910390a150505050505050565b8273ffffffffffffffffffffffffffffffffffffffff166370a08231336040518263ffffffff1660e01b8152600401610fd891906115c6565b60206040518083038186803b158015610ff057600080fd5b505afa158015611004573d6000803e3d6000fd5b505050506040513d601f19601f820116820180604052508101906110289190611530565b81111561103457600080fd5b60006110418484846106f4565b90508373ffffffffffffffffffffffffffffffffffffffff166323b872dd3360008054906101000a900473ffffffffffffffffffffffffffffffffffffffff16856040518463ffffffff1660e01b81526004016110a093929190611679565b602060405180830381600087803b1580156110ba57600080fd5b505af11580156110ce573d6000803e3d6000fd5b505050506040513d601f19601f820116820180604052508101906110f291906114de565b6110fb57600080fd5b8273ffffffffffffffffffffffffffffffffffffffff166323b872dd60008054906101000a900473ffffffffffffffffffffffffffffffffffffffff1633846040518463ffffffff1660e01b815260040161115893929190611679565b602060405180830381600087803b15801561117257600080fd5b505af1158015611186573d6000803e3d6000fd5b505050506040513d601f19601f820116820180604052508101906111aa91906114de565b6111b357600080fd5b7ff7ab0894de728774629d5529c1706efaa4aa69d141855c65f6a75ed4059250bc818585856040516111e89493929190611759565b60405180910390a150505050565b6000818361120491906117d8565b90508281101561123d577f4e487b7100000000000000000000000000000000000000000000000000000000600052600160045260246000fd5b92915050565b60008083141561125657600090506112a6565b8183611262919061185f565b9050818382611271919061182e565b146112a5577f4e487b7100000000000000000000000000000000000000000000000000000000600052600160045260246000fd5b5b92915050565b600081836112ba919061182e565b905092915050565b6000828211156112fb577f4e487b7100000000000000000000000000000000000000000000000000000000600052600160045260246000fd5b818361130791906118b9565b905092915050565b60008135905061131e81611993565b92915050565b600081519050611333816119aa565b92915050565b600081359050611348816119c1565b92915050565b60008135905061135d816119d8565b92915050565b600081519050611372816119d8565b92915050565b60006020828403121561138a57600080fd5b60006113988482850161130f565b91505092915050565b600080604083850312156113b457600080fd5b60006113c28582860161130f565b92505060206113d38582860161130f565b9150509250929050565b6000806000606084860312156113f257600080fd5b60006114008682870161130f565b93505060206114118682870161130f565b925050604061142286828701611339565b9150509250925092565b60008060006060848603121561144157600080fd5b600061144f8682870161130f565b93505060206114608682870161130f565b92505060406114718682870161134e565b9150509250925092565b6000806000806080858703121561149157600080fd5b600061149f8782880161130f565b94505060206114b08782880161130f565b93505060406114c18782880161134e565b92505060606114d28782880161134e565b91505092959194509250565b6000602082840312156114f057600080fd5b60006114fe84828501611324565b91505092915050565b60006020828403121561151957600080fd5b60006115278482850161134e565b91505092915050565b60006020828403121561154257600080fd5b600061155084828501611363565b91505092915050565b611562816118ed565b82525050565b60006115756004836117c7565b91507f72617465000000000000000000000000000000000000000000000000000000006000830152602082019050919050565b6115b18161190b565b82525050565b6115c08161192b565b82525050565b60006020820190506115db6000830184611559565b92915050565b600060c0820190506115f66000830189611559565b6116036020830188611559565b6116106040830187611559565b61161d60608301866115b7565b61162a60808301856115b7565b61163760a08301846115b7565b979650505050505050565b60006060820190506116576000830186611559565b6116646020830185611559565b61167160408301846115a8565b949350505050565b600060608201905061168e6000830186611559565b61169b6020830185611559565b6116a860408301846115b7565b949350505050565b600060a0820190506116c56000830188611559565b6116d26020830187611559565b6116df60408301866115b7565b6116ec60608301856115b7565b6116f960808301846115b7565b9695505050505050565b6000602082019050818103600083015261171c81611568565b9050919050565b600060208201905061173860008301846115a8565b92915050565b600060208201905061175360008301846115b7565b92915050565b600060808201905061176e60008301876115b7565b61177b6020830186611559565b6117886040830185611559565b61179560608301846115b7565b95945050505050565b60006040820190506117b360008301856115b7565b6117c060208301846115b7565b9392505050565b600082825260208201905092915050565b60006117e38261192b565b91506117ee8361192b565b9250827fffffffffffffffffffffffffffffffffffffffffffffffffffffffffffffffff0382111561182357611822611935565b5b828201905092915050565b60006118398261192b565b91506118448361192b565b92508261185457611853611964565b5b828204905092915050565b600061186a8261192b565b91506118758361192b565b9250817fffffffffffffffffffffffffffffffffffffffffffffffffffffffffffffffff04831182151516156118ae576118ad611935565b5b828202905092915050565b60006118c48261192b565b91506118cf8361192b565b9250828210156118e2576118e1611935565b5b828203905092915050565b60006118f88261190b565b9050919050565b60008115159050919050565b600073ffffffffffffffffffffffffffffffffffffffff82169050919050565b6000819050919050565b7f4e487b7100000000000000000000000000000000000000000000000000000000600052601160045260246000fd5b7f4e487b7100000000000000000000000000000000000000000000000000000000600052601260045260246000fd5b61199c816118ed565b81146119a757600080fd5b50565b6119b3816118ff565b81146119be57600080fd5b50565b6119ca8161190b565b81146119d557600080fd5b50565b6119e18161192b565b81146119ec57600080fd5b5056fea2646970667358221220252d9180144a357976ab1675a2e2634ece3f91a29c615bd986cc9931a0e90c6a64736f6c63430008000033",
  "immutableReferences": {},
  "source": "// SPDX-License-Identifier: MIT\npragma solidity >=0.4.22 <0.9.0;\nimport \"../interface/IERC20.sol\";\n\n/**\n * @title SafeMath\n * @dev Math operations with safety checks that throw on error\n */\nlibrary SafeMath {\n    /**\n     * @dev Multiplies two numbers, throws on overflow.\n     */\n    function mul(uint256 a, uint256 b) internal pure returns (uint256 c) {\n        // Gas optimization: this is cheaper than asserting 'a' not being zero, but the\n        // benefit is lost if 'b' is also tested.\n        // See: https://github.com/OpenZeppelin/openzeppelin-solidity/pull/522\n        if (a == 0) {\n            return 0;\n        }\n\n        c = a * b;\n        assert(c / a == b);\n        return c;\n    }\n\n    /**\n     * @dev Integer division of two numbers, truncating the quotient.\n     */\n    function div(uint256 a, uint256 b) internal pure returns (uint256) {\n        // assert(b > 0); // Solidity automatically throws when dividing by 0\n        // uint256 c = a / b;\n        // assert(a == b * c + a % b); // There is no case in which this doesn't hold\n        return a / b;\n    }\n\n    /**\n     * @dev Subtracts two numbers, throws on overflow (i.e. if subtrahend is greater than minuend).\n     */\n    function sub(uint256 a, uint256 b) internal pure returns (uint256) {\n        assert(b <= a);\n        return a - b;\n    }\n\n    /**\n     * @dev Adds two numbers, throws on overflow.\n     */\n    function add(uint256 a, uint256 b) internal pure returns (uint256 c) {\n        c = a + b;\n        assert(c >= a);\n        return c;\n    }\n}\n\ncontract Uniswap {\n    using SafeMath for uint256;\n\n    address private _owner = msg.sender;\n    address public LPtokenAddr;\n    // price * 10**6\n    uint256 public BNBPrice = 499640000;\n    uint256 public token0Price = 23440000;\n    uint256 public token1Price = 187520000;\n\n    modifier isOwner() {\n        require(msg.sender == _owner);\n        _;\n    }\n\n    function setLPTokenContract(address _LPtokenAddr) public isOwner {\n        LPtokenAddr = _LPtokenAddr;\n    }\n\n    struct token {\n        string contractAddress; // \n    }\n\n    struct Liquidity {\n        address userAddress;\n        address token0Address;\n        address token1Address;\n        uint256 token0Qty;\n        uint256 token1Qty;\n        uint256 LPtokenAmount;\n    }\n\n    event Swape(\n        uint256 estimateQty,\n        address token0Address,\n        address token1Address,\n        uint256 quantity\n    );\n\n    event AddLiquidity(\n        address token0Address,\n        address token1Address,\n        uint256 token0Qty,\n        uint256 token1Qty,\n        uint256 LPtokenAmount\n    );\n\n    event GetSwipeEstimateQty(uint256 ret, uint256 targetTokenQty);\n\n    Liquidity[] public liquidities;\n\n    //create pool\n    struct Pairs {\n        address token0Address;\n        address token1Address;\n        uint160 rateLiquidity;\n    }\n    mapping(address => mapping(address => Pairs)) public pools;\n\n    function createPool(\n        address token0Address,\n        address token1Address,\n        uint160 rateLiquidity\n    ) public {\n        // \n        Pairs memory _pairs =\n            Pairs({\n                token0Address: token0Address,\n                token1Address: token1Address,\n                rateLiquidity: rateLiquidity\n            });\n        pools[token0Address][token1Address] = _pairs;\n    }\n\n    function getTokenRatio(address token0Address, address token1Address)\n        public\n        view\n        returns (uint160 rateLiquidity)\n    {\n        rateLiquidity = pools[token0Address][token1Address].rateLiquidity;\n    }\n\n    // \n    function addLiquidity(\n        address token0Address,\n        address token1Address,\n        uint256 token0Qty,\n        uint256 token1Qty\n    ) public payable {\n        uint160 rate = getTokenRatio(token0Address, token1Address);\n        require(token1Qty == token0Qty.mul(rate).div(100), \"rate\");\n        // \n\n        require(\n            IERC20(token0Address).transferFrom(msg.sender, _owner, token0Qty)\n        );\n        require(\n            IERC20(token1Address).transferFrom(msg.sender, _owner, token1Qty)\n        );\n        uint256 LPtokenAmount =\n            (token0Price.mul(token0Qty) + token1Price.mul(token1Qty))\n                .div(BNBPrice)\n                .sub(1000);\n        require(\n            IERC20(LPtokenAddr).transferFrom(_owner, msg.sender, LPtokenAmount)\n        );\n\n        // \n        Liquidity memory _liquidity =\n            Liquidity({\n                userAddress: msg.sender,\n                token0Address: token0Address,\n                token1Address: token1Address,\n                token0Qty:token0Qty,\n                token1Qty: token1Qty,\n                LPtokenAmount: LPtokenAmount\n            });\n\n        liquidities.push(_liquidity);\n        emit AddLiquidity(token0Address, token1Address, token0Qty, token1Qty, LPtokenAmount);\n    }\n\n    function getPostionInfo(uint256 _postionId)\n        external\n        view\n        returns (\n            address userAddress,\n            address token0Address,\n            address token1Address,\n            uint256 token0Qty,\n            uint256 token1Qty,\n            uint256 LPtokenAmount\n        )\n    {\n        Liquidity storage _liquidity = liquidities[_postionId];\n        userAddress = _liquidity.userAddress;\n        token0Address = _liquidity.token0Address;\n        token1Address = _liquidity.token1Address;\n        token0Qty = _liquidity.token0Qty;\n        token1Qty = _liquidity.token1Qty;\n        LPtokenAmount = _liquidity.LPtokenAmount;\n    }\n\n    /**\n     *  \n     *  swapToken: Token\n     *  targetToken: Token\n     */\n    function swape(\n        address token0Address,\n        address token1Address,\n        uint256 quantity\n    ) public payable {\n        require(quantity <= IERC20(token0Address).balanceOf(msg.sender));\n        uint256 estimateQty =\n            getSwipeEstimateQty(token0Address, token1Address, quantity);\n        require(\n            IERC20(token0Address).transferFrom(msg.sender, _owner, quantity)\n        );\n        // IERC20(token1Address).approve(_owner, estimateQty);\n        require(\n            IERC20(token1Address).transferFrom(_owner, msg.sender, estimateQty)\n        );\n        emit Swape(estimateQty, token0Address, token1Address, quantity);\n\n    }\n\n    // \n    function getSwipeEstimateQty(\n        address token0Address,\n        address token1Address,\n        uint256 quantity\n    ) public returns (uint256 ret) {\n        uint256 t0Qty = IERC20(token0Address).balanceOf(_owner);\n        uint256 t1Qty = IERC20(token1Address).balanceOf(_owner);\n        uint256 targetTokenQty = t0Qty.mul(t1Qty).div(t0Qty.add(quantity));\n        ret = t1Qty.sub(targetTokenQty);\n        emit GetSwipeEstimateQty(ret, targetTokenQty);\n    }\n}\n",
  "sourcePath": "/Users/robertluo/Documents/blockchain/test1/contracts/Uniswap.sol",
  "compiler": {
    "name": "solc",
    "version": "0.8.0+commit.c7dfd78e.Emscripten.clang"
  },
  "schemaVersion": "3.4.3",
  "updatedAt": "2021-09-02T04:42:35.065Z",
  "networkType": "ethereum",
  "devdoc": {
    "kind": "dev",
    "methods": {},
    "version": 1
  },
  "userdoc": {
    "kind": "user",
    "methods": {
      "swape(address,address,uint256)": {
        "notice": "  swapToken: Token  targetToken: Token"
      }
    },
    "version": 1
  }
}